S01100004E52464C30312052582E73726563B6
S11300000C942A000C9447000C9447000C9447006D
S11300100C9447000C9447000C9447000C94470040
S11300200C9447000C9447000C9447000C94470030
S11300300C9447000C9447000C9447000C94470020
S11300400C9447000C9447000C9447000C94470010
S11300500C94470011241FBECFE5D4E0DEBFCDBF12
S113006011E0A0E6B0E0EAEDFEE002C005900D92DA
S1130070A833B107D9F721E0A8E3B1E001C01D928C
S1130080AB33B207E1F70E94BE030C946B070C94E8
S113009000005D9BFECF8CB90895CF93DF93EC01F4
S11300A08881882331F021960E9449008991811129
S11300B0FBCFDF91CF91089510923901009779F029
S11300C041E001C0452F542F5F5F242F30E02817F3
S11300D03907C0F38AE080933A01409339010895C7
S11300E084E690E00E945C00AA9A84E690E00E9474
S11300F05C00AA980895CF93C82FAA9885B39C2F23
S1130100907F8870892B85BB0E94700085B3C2954F
S1130110C07F8870C82BC5BB0E947000CF91089522
S113012080580E947B0008954CEC5CE005C09A0165
S1130130000021503109E1F70197C8F7089585B30C
S1130140809338018FEF84BB8FE090E00E9494008D
S113015083E00E947B008DE290E00E94940082E0A4
S11301600E947B008FE090E00E949400AA9881E0B6
S11301700E947B008FE00E947B0082E00E947B0053
S113018080E80E947B008FE090E00E949400089534
S113019090BD89B988E18AB986E880BD089587B39E
S11301A08F7087BB87B3806B87BB81E58DB981E096
S11301B08EB908958FB9779BFECF8FB10895C198FA
S11301C08F710E94DA008FEF0E94DA00C19A0895BD
S11301D0CF93C62FC1988F7180620E94DA008C2F52
S11301E00E94DA00C19ACF910895FF920F931F9352
S11301F0CF93DF93062F172FF42EC1988F7180624F
S11302000E94DA00FF2071F0C02FD12F8E010F5F02
S11302101F4FFA940F0D111D89910E94DA00C01727
S1130220D107D1F7C19ADF91CF911F910F91FF9020
S1130230089520E030E00496FB01E20FF31FDC0197
S1130240A21BB30B4C9140832F5F3F4F25303105E8
S113025099F70895CF93DF9300D000D01F92CDB7C4
S1130260DEB79B01811116C085E0FB01A0E6B0E07A
S113027001900D928A95E1F7BE016F5F7F4FC9012E
S11302800E94190145E0BE016F5F7F4F8AE00E9422
S1130290F50056C08130B1F485E0FB01A5E6B0E07D
S11302A001900D928A95E1F7BE016F5F7F4FC901FE
S11302B00E94190145E0BE016F5F7F4F8BE00E94F1
S11302C0F5003EC0823071F485E0FB01AAE6B0E09F
S11302D001900D928A95E1F7FB0164818CE00E9404
S11302E0E8002EC0833071F485E0FB01AFE6B0E096
S11302F001900D928A95E1F7FB0164818DE00E94E3
S1130300E8001EC0843071F485E0FB01A4E7B0E08E
S113031001900D928A95E1F7FB0164818EE00E94C1
S1130320E8000EC0853061F4FB01A9E7B0E001905C
S11303300D928A95E1F7FB0164818FE00E94E80049
S11303400F900F900F900F900F90DF91CF91089521
S1130350CF93DF9300D000D01F92CDB7DEB725E056
S1130360FC01AEE7B0E001900D922A95E1F7BE01E1
S11303706F5F7F4F0E94190145E0BE016F5F7F4FA1
S11303808AE00E94F50045E0BE016F5F7F4F80E187
S11303900E94F5000F900F900F900F900F90DF9137
S11303A0CF910895C19882EE0E94DA00C19A08950F
S11303B0C19881EE0E94DA00C19A089560E670E067
S11303C080E00E942A0180E00E94DF00682F6160C3
S11303D080E00E94E80080E00E94DF00682F6260F5
S11303E080E00E94E80060E787E00E94E8000E9445
S11303F0D2010E94D801C09A87E592E00197F1F7F3
S113040000C000000895C1988FEF0E94DA00C19ADD
S11304100895EF92FF920F931F93CF93DF93CDB77D
S1130420DEB7C456D1090FB6F894DEBF0FBECDBFF8
S11304307C0183E890E0F70109950E9403021F9272
S11304408F938AE890E09F938F938E010F5F1F4FE5
S11304501F930F930E948604C801F701099580E059
S11304600E94DF001F928F9389E990E09F938F93FE
S11304701F930F930E948604C801F701099585E034
S11304800E94DF001F928F9388EA90E09F938F93DE
S11304901F930F930E948604C801F701099586E013
S11304A00E94DF001F928F9386EB90E09F938F93BF
S11304B01F930F930E948604C801F701099581E0F8
S11304C00E94DF001F928F9387EC90E09F938F939D
S11304D01F930F930E948604C801F701099582E0D7
S11304E00E94DF001F928F9385ED90E09F938F937E
S11304F01F930F930E9486040FB6F894DEBF0FBEBD
S1130500CDBFC801F701099588E00E94DF001F9262
S11305108F9387EE90E09F938F931F930F930E9486
S11305208604C801F701099582ED90E0F701099569
S11305300F900F900F900F900F900F90CC59DF4FAA
S11305400FB6F894DEBF0FBECDBFDF91CF911F91E0
S11305500F91FF90EF900895CF93DF93EC010E94E9
S11305600302982F907486FF05C0209719F0869592
S113057087708883892FDF91CF9108950F931F93FC
S1130580CF93DF93082F192FC19881E60E94DA00D8
S1130590C02FD12F10E08FEF0E94DA0089931F5FE4
S11305A01031C9F7C19A60E487E00E94E8000E9414
S11305B0030285FF04C060E287E00E94E800DF9147
S11305C0CF911F910F91089586E00E94DF00682F5C
S11305D0666086E00E94E800089586E00E94DF00DD
S11305E0682F677D86E00E94E800089580E00E94FD
S11305F0DF00682F6C6080E00E94E8000895B99ADB
S1130600B89A0E94CF00C098C19A8FE19EE40197E6
S1130610F1F700C000000E94E4020E94ED020E9473
S1130620F60267E484E00E94E80060E08CE10E9446
S1130630E8006CE485E00E94E80060E181E10E944A
S1130640E80060E182E10E94E80060E183E10E9449
S1130650E80060E184E10E94E80060E185E10E9435
S1130660E80060E186E10E94E80060E082E00E9428
S1130670E80082E00E94DF00682F616082E00E944F
S1130680E80082E00E94DF00682F626082E00E943E
S1130690E80082E00E94DF00682F646082E00E942C
S11306A0E80082E00E94DF00682F686082E00E9418
S11306B0E80082E00E94DF00682F606182E00E940F
S11306C0E80082E00E94DF00682F606282E00E94FE
S11306D0E80081E00E94DF00682F616081E00E94F1
S11306E0E80081E00E94DF00682F626081E00E94E0
S11306F0E80081E00E94DF00682F646081E00E94CE
S1130700E80081E00E94DF00682F686081E00E94B9
S1130710E80081E00E94DF00682F606181E00E94B0
S1130720E80081E00E94DF00682F606281E00E949F
S1130730E80060E670E080E00E942A0165E670E06F
S113074081E00E942A016AE670E082E00E942A01A8
S11307506FE670E083E00E942A0164E770E084E0C1
S11307600E942A0169E770E085E00E942A018EE771
S113077090E00E94A8010E94DE010895CF93DF93C8
S1130780CDB7DEB7A6970FB6F894DEBF0FBECDBFC8
S113079087E690E00E94C8000E949F0080E00E94CB
S11307A090000E94FF02789482E50E944900EE24A2
S11307B0E394F12CEC0EFD1EF70181E681938F5F2B
S11307C08137E1F78E010F5E1F4F6E0181E2C80E83
S11307D0D11CF8011192EC15FD05E1F769E470E014
S11307E08DE490E00E940902A12C8E2C7F2C602EB7
S11307F0912E55245394BA2CAEA2CE0186960E9413
S1130800AC02882309F443C08AEF90E00E944D00B3
S11308104AE050E0BE016F5D7F4F8EA19A2D0E9489
S11308206504CE0181960E944D0082ED90E00E9405
S11308304D00CE0141960E94BE0281E191E00E94EA
S11308404D00E82CF72C062D192D452CF80181912B
S11308508F01F70191917F0189134B2C0E9449006C
S1130860C016D10699F782ED90E00E944D00442015
S113087029F08AE191E00E944D0010C087E291E0E6
S11308800E944D000BC01192CE16DF06E1F78FE3F4
S11308909CE90197F1F700C00000AECFE62DF92DD9
S11308A0F2CFAA1BBB1B51E107C0AA1FBB1FA6178F
S11308B0B70710F0A61BB70B881F991F5A95A9F705
S11308C080959095BC01CD010895FB019F01E894AA
S11308D04230C4F04532B4F44A3029F497FB1EF494
S11308E0909581959F4F642F77270E945104805DD6
S11308F08A330CF0895D8193CB010097A1F716F43C
S11309005DE251931082C9010C949A06AEE0B0E006
S1130910ECE8F4E00C9442070D891E8986E08C8390
S11309201A8309838FEF9FE79E838D83CE014996B7
S1130930AC016F89788DCE0101960E94A804EF81E5
S1130940F885E00FF11F10822E96E4E00C945E0708
S1130950ACE0B0E0EEEAF4E00C9434077C016B0107
S11309608A01FC0117821682838181FFC6C1882413
S11309708394912C8C0E9D1EF7019381F60193FDB7
S1130980859193FF81916F01882309F4B2C1853267
S113099039F493FD859193FF81916F01853229F498
S11309A0B70190E00E94AA06E7CF512C312C20E039
S11309B02032A8F48B3261F028F4803251F0833273
S11309C071F40BC08D3239F0803349F4216028C0B2
S11309D02260246025C0286023C0206121C027FD37
S11309E027C0382F30533A3078F426FF06C0FAE097
S11309F05F9E300D1124532E13C08AE0389E300DB3
S1130A001124332E20620CC08E3221F426FD71C1D4
S1130A10206406C08C3611F4206802C0883641F484
S1130A20F60193FD859193FF81916F018111C0CFF0
S1130A30982F9554933018F09052933028F40C5F0B
S1130A401F4FFFE3F9830DC0833631F0833771F014
S1130A50833509F05EC023C0F801808189830E5F6D
S1130A601F4F44244394512C540115C03801F2E023
S1130A706F0E711CF801A080B18026FF03C0652DA4
S1130A8070E002C06FEF7FEFC5012C870E948F06D4
S1130A902C0183012C856FE7262E222218C03801F1
S1130AA0F2E06F0E711CF801A080B18026FF03C034
S1130AB0652D70E002C06FEF7FEFC5012C870E94A7
S1130AC084062C012C8550E8252E222A830123FC40
S1130AD01CC006C0B70180E290E00E94AA063A94C6
S1130AE0832D90E048165906A8F30FC0F50127FCA2
S1130AF0859127FE81915F01B70190E00E94AA06CB
S1130B0031103A94F1E04F1A51084114510471F72D
S1130B10EDC0843611F0893641F5F80127FF07C08E
S1130B2060817181828193810C5F1F4F08C0608155
S1130B307181882777FD8095982F0E5F1F4F4FE6B0
S1130B40B42EB22297FF09C0909580957095619557
S1130B507F4F8F4F9F4FF0E8BF2A2AE030E0A40177
S1130B600E94D606A82EA81843C0853731F43FEE5C
S1130B70B32EB2222AE030E024C099EFB92EB2227B
S1130B808F36B9F020F4883509F0B3C00DC0803732
S1130B9021F0883709F0ADC002C020E1B22AB4FECA
S1130BA00BC084E0B82A08C024FF09C0E6E0BE2ACE
S1130BB006C028E030E005C020E130E002C020E1BA
S1130BC032E0F801B7FE07C06081718182819381B0
S1130BD00C5F1F4F06C06081718180E090E00E5F62
S1130BE01F4FA4010E94D606A82EA818FFE7BF2213
S1130BF0B6FE0BC02B2D2E7FA51450F4B4FE0AC0F4
S1130C00B2FC08C02B2D2E7E05C07A2C2B2D03C0E0
S1130C107A2C01C0752C24FF0DC0FE01EA0DF11DD4
S1130C208081803311F4297E09C022FF06C07394A9
S1130C30739404C0822F867809F0739423FD14C042
S1130C4020FF0FC05A2C731460F4530C5718732CE4
S1130C5008C0B70180E290E02C870E94AA06739432
S1130C602C857314B0F304C0731410F4371801C046
S1130C70312C24FF12C0B70180E390E02C870E943E
S1130C80AA062C8522FF1EC021FF03C088E590E040
S1130C9002C088E790E0B7010CC0822F867891F0FB
S1130CA021FD02C080E201C08BE227FD8DE2B70185
S1130CB090E00E94AA0606C0B70180E390E00E947B
S1130CC0AA065A94A514C0F3AA94F401EA0DF11DDE
S1130CD0B701808190E00E94AA06A110F5CF06C05A
S1130CE0B70180E290E00E94AA063A943110F8CF4E
S1130CF043CEF7012681378102C02FEF3FEFC901B0
S1130D002C96E2E10C945007FC0105906150704070
S1130D100110D8F7809590958E0F9F1F0895FC01C0
S1130D206150704001900110D8F7809590958E0F16
S1130D309F1F0895DC01FC01672F71917723E1F770
S1130D40329704C07C916D9370836291AE17BF0794
S1130D50C8F308950F931F93CF93DF938C01EB0196
S1130D608B8181FD03C00FEF1FEF1AC082FF0DC0FE
S1130D702E813F818C819D812817390764F4E88195
S1130D80F9810193F983E88306C0E885F985802F0A
S1130D900995892B41F78E819F8101969F838E83CC
S1130DA0C801DF91CF911F910F910895FA01AA27ED
S1130DB0283051F1203181F1E8946F936E7F6E5F9A
S1130DC07F4F8F4F9F4FAF4FB1E03ED0B4E03CD048
S1130DD0670F781F891F9A1FA11D680F791F8A1F2B
S1130DE0911DA11D6A0F711D811D911DA11D20D092
S1130DF009F468943F912AE0269F11243019305D4C
S1130E003193DEF6CF010895462F4770405D41933C
S1130E10B3E00FD0C9F7F6CF462F4F70405D4A3389
S1130E2018F0495D31FD4052419302D0A9F7EACF51
S1130E30B4E0A6959795879577956795BA95C9F780
S1130E4000976105710508959B01AC010A2E069473
S1130E505795479537952795BA95C9F7620F731F2C
S1130E60841F951FA01D08952F923F924F925F9269
S1130E706F927F928F929F92AF92BF92CF92DF92A6
S1130E80EF92FF920F931F93CF93DF93CDB7DEB70B
S1130E90CA1BDB0B0FB6F894DEBF0FBECDBF09949F
S1130EA02A88398848885F846E847D848C849B84F6
S1130EB0AA84B984C884DF80EE80FD800C811B8104
S1130EC0AA81B981CE0FD11D0FB6F894DEBF0FBE33
S10D0ED0CDBFED010895F894FFCFA3
S1130EDAE8E8F0F0E2C1C2C2C2C2C1C2C2C2C3C11E
S1130EEAC2C2C2C4C1C2C2C2C5C1C2C2C2C6E8E881
S1130EFAF0F0E2696E666F0D0A005354415455537B
S1130F0A3A20253032580D0A00434F4E4649473A93
S1130F1A20253032580D0A0052465F43483A2025AC
S1130F2A3032580D0A0052465F53455455503A2000
S1130F3A253032580D0A00454E5F41413A2025308A
S1130F4A32580D0A00454E5F5258414444523A20E1
S1130F5A253032580D0A004F4253455256455F54C4
S1130F6A583A20253032580D0A0067657474696E40
S1130F7A6720646174612C206F6E2070697065202B
S1130F8A002020646174613A20002020636865634C
S1130F9A6B206F6B0D0A002020636865636B206603
S10B0FAA61696C730D0A00007B
S9030000FC
