S01100004E52464C30312054582E73726563B4
S11300000C942A000C943F000C943F000C943F0085
S11300100C943F000C943F000C943F000C943F0060
S11300200C943F000C943F000C943F000C943F0050
S11300300C943F000C943F000C943F000C943F0040
S11300400C943F000C943F000C943F000C943F0030
S11300500C943F0011241FBECFE5D4E0DEBFCDBF1A
S113006011E0A0E6B0E0ECE7FEE002C005900D92DE
S1130070AC34B107D9F70E946C030C943C070C9480
S113008000005D9BFECF8CB90895CF93DF93EC0104
S11300908881882331F021960E9441008991811141
S11300A0FBCFDF91CF91089590BD89B988E18AB9DA
S11300B086E880BD089587B38F7087BB87B3806B54
S11300C087BB81E58DB981E08EB908958FB9779B9F
S11300D0FECF8FB10895C1988F710E9466008FEF93
S11300E00E946600C19A0895CF93C62FC1988F715C
S11300F080620E9466008C2F0E946600C19ACF9194
S11301000895FF920F931F93CF93DF93062F172F1A
S1130110F42EC1988F7180620E946600FF2071F0F6
S1130120C02FD12F8E010F5F1F4FFA940F0D111D99
S113013089910E946600C017D107D1F7C19ADF9157
S1130140CF911F910F91FF90089520E030E0049625
S1130150FB01E20FF31FDC01A21BB30B4C914083A4
S11301602F5F3F4F2530310599F70895CF93DF93E3
S113017000D000D01F92CDB7DEB79B01811116C00D
S113018085E0FB01A0E6B0E001900D928A95E1F7CD
S1130190BE016F5F7F4FC9010E94A50045E0BE010B
S11301A06F5F7F4F8AE00E94810056C08130B1F4B6
S11301B085E0FB01A5E6B0E001900D928A95E1F798
S11301C0BE016F5F7F4FC9010E94A50045E0BE01DB
S11301D06F5F7F4F8BE00E9481003EC0823071F4DC
S11301E085E0FB01AAE6B0E001900D928A95E1F763
S11301F0FB0164818CE00E9474002EC0833071F492
S113020085E0FB01AFE6B0E001900D928A95E1F73D
S1130210FB0164818DE00E9474001EC0843071F47F
S113022085E0FB01A4E7B0E001900D928A95E1F727
S1130230FB0164818EE00E9474000EC0853061F47D
S1130240FB01A9E7B0E001900D928A95E1F7FB016B
S113025064818FE00E9474000F900F900F900F90B4
S11302600F90DF91CF910895CF93DF9300D000D00A
S11302701F92CDB7DEB725E0FC01AEE7B0E00190F8
S11302800D922A95E1F7BE016F5F7F4F0E94A50092
S113029045E0BE016F5F7F4F8AE00E94810045E028
S11302A0BE016F5F7F4F80E10E9481000F900F902D
S11302B00F900F900F90DF91CF910895C19882EE27
S11302C00E946600C19A0895C19881EE0E9466005A
S11302D0C19A089560E670E080E00E94B60080E074
S11302E00E946B00682F616080E00E94740080E0CF
S11302F00E946B00682F626080E00E94740060E7D7
S113030087E00E9474000E945E010E946401C09A0A
S113031087E592E00197F1F700C000000895C098C6
S113032080E00E946B00682F6E7F80E00E94740062
S113033080E00E946B00682F626080E00E9474007D
S113034060E787E00E9474000E94640187E592E000
S11303500197F1F700C000000895C1988FEF0E9443
S11303606600C19A0895EF92FF920F931F93CF9363
S1130370DF93CDB7DEB7C456D1090FB6F894DEBF0C
S11303800FBECDBF7C0181EA90E0F70109950E9480
S1130390AD011F928F9388EA90E09F938F938E0113
S11303A00F5F1F4F1F930F930E944304C801F7016F
S11303B0099580E00E946B001F928F9387EB90E079
S11303C09F938F931F930F930E944304C801F701D7
S11303D0099585E00E946B001F928F9386EC90E054
S11303E09F938F931F930F930E944304C801F701B7
S11303F0099586E00E946B001F928F9384ED90E034
S11304009F938F931F930F930E944304C801F70196
S1130410099581E00E946B001F928F9385EE90E016
S11304209F938F931F930F930E944304C801F70176
S1130430099582E00E946B001F928F9383EF90E0F6
S11304409F938F931F930F930E9443040FB6F894C6
S1130450DEBF0FBECDBFC801F701099588E00E9439
S11304606B001F928F9385E091E09F938F931F936E
S11304700F930E944304C801F701099580EF90E0AF
S1130480F70109950F900F900F900F900F900F9018
S1130490CC59DF4F0FB6F894DEBF0FBECDBFDF914E
S11304A0CF911F910F91FF90EF90089586E00E94E5
S11304B06B00682F666086E00E947400089586E0F1
S11304C00E946B00682F677D86E00E947400089587
S11304D080E00E946B00682F6C6080E00E947400D2
S11304E00895B99AB89A0E945B00C098C19A8FE1A6
S11304F09EE40197F1F700C000000E9456020E949A
S11305005F020E94680267E484E00E94740060E075
S11305108CE10E9474006CE485E00E94740060E148
S113052081E10E94740060E182E10E94740060E154
S113053083E10E94740060E184E10E94740060E140
S113054085E10E94740060E186E10E94740060E02D
S113055082E00E94740082E00E946B00682F616058
S113056082E00E94740082E00E946B00682F626047
S113057082E00E94740082E00E946B00682F646035
S113058082E00E94740082E00E946B00682F686021
S113059082E00E94740082E00E946B00682F606118
S11305A082E00E94740082E00E946B00682F606207
S11305B082E00E94740081E00E946B00682F6160F9
S11305C081E00E94740081E00E946B00682F6260E9
S11305D081E00E94740081E00E946B00682F6460D7
S11305E081E00E94740081E00E946B00682F6860C3
S11305F081E00E94740081E00E946B00682F6061BA
S113060081E00E94740081E00E946B00682F6062A8
S113061081E00E94740060E670E080E00E94B60011
S113062065E670E081E00E94B6006AE670E082E070
S11306300E94B6006FE670E083E00E94B60064E7B3
S113064070E084E00E94B60069E770E085E00E94F3
S1130650B6008EE790E00E9434010E946A0108957A
S11306600F931F93CF93DF93082F192F0E948F01AD
S1130670C19880EA0E946600C02FD12F10E08991B2
S11306800E9466001F5F1031D1F7C19AC09A80E5BD
S11306908A95F1F7C09885E38A95F1F700000E94E6
S11306A0AD018073C1F30E94AD01C82F6CE485E0F5
S11306B00E94740080E00E946B00682F6D7F80E0D0
S11306C00E9474000E946A01C5FB882780F9DF91AB
S11306D0CF911F910F910895CF93DF93CDB7DEB7DC
S11306E0A3970FB6F894DEBF0FBECDBF87E690E0A8
S11306F00E9454000E947102789484E50E94410093
S113070085E0E3E8F0E0DE01119601900D928A9510
S1130710E1F785E0E8E8F0E0DE01169601900D923D
S11307208A95E1F785E0EDE8F0E0DE011B960190A3
S11307300D928A95E1F785E0E2E9F0E0DE0150965A
S113074001900D928A95E1F785E0E7E9F0E0DE019A
S1130750559601900D928A95E1F785E0ECE9F0E079
S1130760DE015A9601900D928A95E1F761E470E0FA
S113077085E490E00E94B30110E00BEA88E191E087
S11307800E9445004AE050E0BE01615E7F4F812F28
S113079090E00E942204CE014F960E9445008FE211
S11307A091E00E944500111105C0CE0101960E94FE
S11307B0340122C0113029F4CE0106960E9434017E
S11307C01BC0123029F4CE010B960E94340114C0D0
S11307D0133029F4CE0140960E9434010DC0143028
S11307E029F4CE0145960E94340106C0153021F447
S11307F0CE014A960E94340184E391E00E943003C2
S1130800813029F48EE391E00E94450004C083E422
S113081091E00E944500812F8F5F809F112D11244C
S113082016951695912F990F190F110F811B182FDB
S11308302FEF83ED90E3215080409040E1F700C01A
S113084000009CCFFB019F01E8944230C4F0453284
S1130850B4F44A3029F497FB1EF4909581959F4F88
S1130860642F77270E94F106805D8A330CF0895D3E
S11308708193CB010097A1F716F45DE251931082A6
S1130880C9010C945706AEE0B0E0E9E4F4E00C943E
S113089013070D891E8986E08C831A8309838FEFE1
S11308A09FE79E838D83CE014996AC016F89788D35
S11308B0CE0101960E946504EF81F885E00FF11FD7
S11308C010822E96E4E00C942F07ACE0B0E0EBE647
S11308D0F4E00C9405077C016B018A01FC0117828A
S11308E01682838181FFC6C188248394912C8C0E47
S11308F09D1EF7019381F60193FD859193FF8191EC
S11309006F01882309F4B2C1853239F493FD8591CE
S113091093FF81916F01853229F4B70190E00E9421
S11309206706E7CF512C312C20E02032A8F48B321B
S113093061F028F4803251F0833271F40BC08D32AF
S113094039F0803349F4216028C02260246025C036
S1130950286023C0206121C027FD27C0382F3053D1
S11309603A3078F426FF06C0FAE05F9E300D112479
S1130970532E13C08AE0389E300D1124332E20628A
S11309800CC08E3221F426FD71C1206406C08C3661
S113099011F4206802C0883641F4F60193FD859174
S11309A093FF81916F018111C0CF982F955493309B
S11309B018F09052933028F40C5F1F4FFFE3F98333
S11309C00DC0833631F0833771F0833509F05EC092
S11309D023C0F801808189830E5F1F4F4424439410
S11309E0512C540115C03801F2E06F0E711CF8014E
S11309F0A080B18026FF03C0652D70E002C06FEFB8
S1130A007FEFC5012C870E944C062C0183012C85A5
S1130A106FE7262E222218C03801F2E06F0E711CF7
S1130A20F801A080B18026FF03C0652D70E002C0EC
S1130A306FEF7FEFC5012C870E9441062C012C85A6
S1130A4050E8252E222A830123FC1CC006C0B701CE
S1130A5080E290E00E9467063A94832D90E0481665
S1130A605906A8F30FC0F50127FC859127FE819153
S1130A705F01B70190E00E94670631103A94F1E0FB
S1130A804F1A51084114510471F7EDC0843611F026
S1130A90893641F5F80127FF07C0608171818281A1
S1130AA093810C5F1F4F08C060817181882777FD97
S1130AB08095982F0E5F1F4F4FE6B42EB22297FFFA
S1130AC009C090958095709561957F4F8F4F9F4F8A
S1130AD0F0E8BF2A2AE030E0A4010E949306A82E81
S1130AE0A81843C0853731F43FEEB32EB2222AE072
S1130AF030E024C099EFB92EB2228F36B9F020F439
S1130B00883509F0B3C00DC0803721F0883709F06B
S1130B10ADC002C020E1B22AB4FE0BC084E0B82A02
S1130B2008C024FF09C0E6E0BE2A06C028E030E081
S1130B3005C020E130E002C020E132E0F801B7FE58
S1130B4007C060817181828193810C5F1F4F06C051
S1130B506081718180E090E00E5F1F4FA4010E94CC
S1130B609306A82EA818FFE7BF22B6FE0BC02B2DB4
S1130B702E7FA51450F4B4FE0AC0B2FC08C02B2D7D
S1130B802E7E05C07A2C2B2D03C07A2C01C0752C27
S1130B9024FF0DC0FE01EA0DF11D8081803311F4A4
S1130BA0297E09C022FF06C07394739404C0822F67
S1130BB0867809F0739423FD14C020FF0FC05A2CCB
S1130BC0731460F4530C5718732C08C0B70180E2F7
S1130BD090E02C870E94670673942C857314B0F3FD
S1130BE004C0731410F4371801C0312C24FF12C050
S1130BF0B70180E390E02C870E9467062C8522FFD2
S1130C001EC021FF03C088E590E002C088E790E0A1
S1130C10B7010CC0822F867891F021FD02C080E2DA
S1130C2001C08BE227FD8DE2B70190E00E946706C8
S1130C3006C0B70180E390E00E9467065A94A514A9
S1130C40C0F3AA94F401EA0DF11DB701808190E08C
S1130C500E946706A110F5CF06C0B70180E290E0BC
S1130C600E9467063A943110F8CF43CEF7012681EB
S1130C70378102C02FEF3FEFC9012C96E2E10C94BB
S1130C802107FC010590615070400110D8F7809550
S1130C9090958E0F9F1F0895FC0161507040019044
S1130CA00110D8F7809590958E0F9F1F0895DC0151
S1130CB0FC01672F71917723E1F7329704C07C918F
S1130CC06D9370836291AE17BF07C8F308950F93B5
S1130CD01F93CF93DF938C01EB018B8181FD03C0C4
S1130CE00FEF1FEF1AC082FF0DC02E813F818C8150
S1130CF09D812817390764F4E881F9810193F98308
S1130D00E88306C0E885F985802F0995892B41F78A
S1130D108E819F8101969F838E83C801DF91CF913D
S1130D201F910F910895FA01AA27283051F120311B
S1130D3081F1E8946F936E7F6E5F7F4F8F4F9F4F6B
S1130D40AF4FB1E03ED0B4E03CD0670F781F891FAD
S1130D509A1FA11D680F791F8A1F911DA11D6A0F7B
S1130D60711D811D911DA11D20D009F468943F912E
S1130D702AE0269F11243019305D3193DEF6CF012D
S1130D800895462F4770405D4193B3E00FD0C9F7F3
S1130D90F6CF462F4F70405D4A3318F0495D31FD60
S1130DA04052419302D0A9F7EACFB4E0A6959795B3
S1130DB0879577956795BA95C9F700976105710589
S1130DC008959B01AC010A2E0694579547953795D3
S1130DD02795BA95C9F7620F731F841F951FA01D2D
S1130DE00895AA1BBB1B51E107C0AA1FBB1FA6176E
S1130DF0B70710F0A61BB70B881F991F5A95A9F7C0
S1130E0080959095BC01CD0108952F923F924F9209
S1130E105F926F927F928F929F92AF92BF92CF9286
S1130E20DF92EF92FF920F931F93CF93DF93CDB78F
S1130E30DEB7CA1BDB0B0FB6F894DEBF0FBECDBF07
S1130E4009942A88398848885F846E847D848C84D8
S1130E509B84AA84B984C884DF80EE80FD800C81E1
S1130E601B81AA81B981CE0FD11D0FB6F894DEBFC4
S10F0E700FBECDBFED010895F894FFCF34
S1130E7CE8E8F0F0E2C1C2C2C2C2C1C2C2C2C3C17C
S1130E8CC2C2C2C4C1C2C2C2C5C1C2C2C2C6E8E8DF
S1130E9CF0F0E2E8E8F0F0E2C1C2C2C2C2C1C2C2E0
S1130EACC2C3C1C2C2C2C4C1C2C2C2C5C1C2C2C20F
S1130EBCC6696E666F0D0A005354415455533A205B
S1130ECC253032580D0A00434F4E4649473A2025E7
S1130EDC3032580D0A0052465F43483A20253032CE
S1130EEC580D0A0052465F53455455503A2025304C
S1130EFC32580D0A00454E5F41413A202530325894
S1130F0C0D0A00454E5F5258414444523A20253054
S1130F1C32580D0A004F4253455256455F54583AC5
S1130F2C20253032580D0A0073656E64696E672093
S1130F3C646174612C206F6E207069706520002EC2
S1130F4C2E2E200041726E616220313031006F6BA5
S10F0F5C0D0A006661696C65640D0A00F2
S9030000FC
